:020000040800F2
:10000000F0FF012011CD0508054A05087DDA00083A
:1000100089CD050889CD050889CD050800000000B7
:10002000000000000000000000000000094A050870
:100030000D4A050800000000114A0508899D0008C6
:1000400089CD050889CD050889CD050889CD050824
:1000500089CD050889CD050849B5000851B50008C6
:1000600059B5000861B5000869B500085DB1000820
:1000700071B1000885B1000899B10008ADB1000860
:10008000C1B10008D5B1000889CD05080000000005
:1000900000000000000000000000000071B5000832
:1000A00039D50008D1D4000849D50008C1D40008CA
:1000B000F9D4000809D5000819D5000821AE0008B8
:1000C000BDBC000829AE0008C1BC000889CD0508E8
:1000D00089CD0508E5380508F1380508000000005D
:1000E00079B5000889CD0508694B050800000000B6
:1000F000000000000000000000000000E9B100085E
:100100000000000089CD050829D5000889CD050823
:1001100000000000000000000000000000000000DF
:10012000FDB1000811B2000825B2000839B200087C
:100130004DB20008000000000000000000000000B8
:10014000000000000000000000000000154A050843
:1001500061B2000875B2000889B20008FD380508D0
:1001600031AE0008C5BC000800000000000000001F
:10017000000000000000000000000000000000007F
:100180000000000089CD050800000000000000000C
:0801900089CD050889CD0508A1
:0801980008C105000100000090
:1001A0000540010008000000583C002038410020B4
:1001B00000000000B01707083441002013020100BE
:1001C00004000000543C00204441002000000000D6
:1001D000B817070840410020FD010100120000008F
:1001E0006841002054410020000000006592000892
:1001F00050410020081203000F000000A03B002027
:10020000804100200000000011D704087C4100203C
:1002100006300100260000005031002094410020EB
:1002200000000000ADD70408904100201602150020
:100230003F000000A4300020C0410020000000006A
:1002400055D80408BC4100200D1001003400000006
:10025000987F0020A8A400200000000065F001089D
:10026000A4A4002021020100F0000000A4980020B6
:10027000249B0020000000008D1A0408209B002011
:100280002C0004001000000094980020189C00200E
:10029000000000009D680308149C002025201E001B
:1002A0002C010000689700202C9C0020000000001A
:1002B00000000000289C00202B00120024000000F9
:1002C000209700205C9D002000000000AD6803081E
:1002D000589D00202700010004000000A084002099
:1002E000849D002000000000BC170708809D0020AE
:1002F0000C70040080000000EC7700208C9D002032
:1003000000000000912F0208889D00203112030098
:1003100042000000047C0020109E0020000000002D
:100320004D3002080C9E0020220201001C0100003A
:1003300024830020589E0020000000009DE5040852
:10034000549E0020031101000A00000018830020C1
:10035000789F002000000000C5700408749F0020F2
:100360000AA0010024000000487C0020889F002093
:1003700000000000956A0308849F0020FE01010030
:100380001800000010810020B09F00200000000035
:10039000DDD60408AC9F002029501400780000002E
:1003A00098800020CC9F002000000000000000008A
:1003B000C89F0020012001000C0000008C8000205C
:1003C00048A0002000000000C017070844A000203B
:1003D00018400100340000005880002058A0002080
:1003E000000000003DE5040854A000202320010087
:1003F000100000004880002090A0002000000000B5
:10040000816A03088CA000200B4001000E00000050
:1004100028800020A4A0002000000000CC170708BE
:10042000A0A000200EB00400980300006C7800200B
:10043000B8A0002000000000E9980208B4A0002045
:100440001E4001004E000000D47F002054A4002074
:1004500000000000DA17070850A400201D02020067
:1004600006000000C0840020E0A40020000000007E
:1004700000000000DCA40020040008008000000050
:1004800058860020ECA400200000000000000000BE
:10049000E8A40020F70101000600000038810020D8
:1004A00070A5002000000000281807086CA5002097
:1004B0001C12010010000000388000207CA50020E4
:1004C0000000000079D7040878A50020FA01010097
:1004D00004000000E086002090A50020000000003D
:1004E00071D704088CA5002019020100100000003B
:1004F0002881002098A50020000000003DD80408B5
:1005000094A500200C02010004000000E4860020F5
:10051000ACA50020000000009DD70408A8A500207D
:10052000021001000C00000000870020B4A500208C
:100530000000000030180708B0A5002003120100D9
:100540003D000000C0870020C4A50020000000007E
:100550003C180708C0A50020010201000A000000A5
:10056000B48A002008A600200000000061D704081B
:1005700004A6002012400100110000003477002082
:1005800018A60020000000007A18070814A6002012
:10059000FD370100B2000000C48A002030A6002010
:1005A00000000000B96D04082CA600201310010003
:1005B00004000000D07F0020E8A60020000000001A
:1005C0008C180708E4A600203B4001000200000050
:1005D0009C8B0020F0A60020000000009018070867
:1005E000ECA600203D20010006000000B48B002096
:1005F000F8A600200000000092180708F4A60020CA
:100600003780010014000000408C002004A7002067
:10061000000000009818070800A70020142001001F
:1006200006000000907F00201CA7002000000000B2
:10063000D598020818A7002002020100030000005C
:10064000AC8A002028A7002000000000B5D80408CC
:1006500024A70020F63101000C000000408100209A
:1006600030A7002000000000AC1807082CA70020CD
:10067000F8410100060000007C7F002040A7002018
:1006800000000000B81807083CA70020F5D10100C1
:1006900074000000A48200204CA70020000000008D
:1006A0001D75040848A70020061203001200000070
:1006B000EC860020C4A7002000000000C5E004086C
:1006C000C0A700203CA001005A00000014BB00207D
:1006D0007CCE002000000000BE18070878CE002065
:1006E0001B30010010000000E4C10020DCCE00201F
:1006F000000000005DF60308D8CE0020163001008F
:100700000A000000FCC10020F0CE00200000000024
:1007100018190708ECCE002010200100030000008B
:10072000ECBF002000CF00200000000022190708C5
:10073000FCCE002019100100030000008CBF002037
:1007400008CF0020000000002619070804CF002071
:100750001A0201003C0000003CCE002010CF002017
:1007600000000000C9E404080CCF002028020400A7
:100770000400000080BF002050CF002000000000D7
:1007800021D804084CCF00202702040004000000F8
:100790007CBF002058CF00200000000019D80408BA
:1007A00054CF00201A0001000E00000024C20020D7
:1007B00060CF0020000000002A1907085CCF00204D
:1007C000206201000C0000000CBF002074CF00204C
:1007D000000000003819070870CF00200E02010049
:1007E0000200000078BF002084CF0020000000003D
:1007F0004419070880CF00202F2001006600000068
:100800008CCF00209CBE0020000000004619070885
:1008100088CF00200F02010001000000C4D6002094
:10082000CCD6002000000000AC190708C8D6002074
:100830002A12010008000000BCD60020D4D60020F7
:1008400000000000AE190708D0D600202B020100DE
:100850000B000000ACD60020E0D600200000000015
:10086000B6190708DCD6002023420100180000005A
:10087000D4D50020F0D6002000000000C4190708DD
:10088000ECD600201F6001002C000000C8D300201F
:100890000CD7002000000000DC19070808D7002052
:1008A0003012010008000000CCD100203CD700200D
:1008B00000000000081A070838D70020387001002F
:1008C00008000000E4D0002048D70020000000000D
:1008D000101A070844D70020050201000400000098
:1008E00008D9002058DD002000000000181A070871
:1008F00054DD00202C22010008000000B0D70020A9
:1009000080DD0020000000001C1A07087CDD0020AC
:100910002D0201000100000040D800208CDD0020E5
:10092000000000000000000088DD0020121201001D
:10093000040000003CD8002094DD002000000000EE
:1009400001D8040890DD00202902010040000000C9
:1009500070D700209CDD0020000000000000000097
:1009600098DD0020010101000400000004D90020EE
:10097000E0DD00200000000000000000DCDD0020C1
:10098000000101000400000060D70020E8DD002025
:1009900000000000241A0708E4DD00200201010025
:1009A00003000000BCD80020F0DD002000000000A3
:1009B000812F0208ECDD002004120100020000007B
:1009C000A0F10020A8F6002000000000281A070867
:1009D000A4F600201B02010010000000E4FF00202C
:1009E0007C0401200000000029D8040878040120BC
:1009F000001201000A00000098FF0020900401206E
:100A00000000000055D704088C040120FC070100F9
:100A10000100000034060120040C01200000000049
:100A2000E76D0408000C012011020100080000001D
:100A3000BC1B0120B41B0120000000000DD80408DD
:100A4000B01B01201F0206000C0000003419012019
:100A5000C81B01200000000091E00408C41B012015
:100A60000902010001000000943C0120E83D012042
:100A7000000000002A1A0708E43D0120F9010100E6
:100A8000040000001C340120F03D012000000000A3
:080A90002C1A0708EC3D0120BF
:100A980012010002000000408304205700020102F6
:100AA80003010000040309041A0300000000000009
:100AB800000000000000000000000000000000002E
:100AC80000000100D8000000000000000500000040
:100AD800060000000200000000000000D40500200D
:100AE800484100200200000001000000618C00085D
:100AF800D0050020000000000100000001000000F7
:100B08003D8C0008DC01002000000000000000000F
:100B180000000000000000000000000000000000CD
:100B280000000000010000000000000000000000BC
:100B380000000000000000000100000000000000AC
:100B4800000000000000000000000000010000009C
:100B58000000000005000000FFFFFFFF00600240EA
:100B680010600240000000000000000000000000CB
:100B7800000000000B000000000000000000000062
:100B880000000000000000000060024028600240F1
:100B98000100000000000000000000000600000046
:100BA8000C00000000000000000000000000000031
:100BB80000000000006002404060024002000000A7
:100BC8000000000000000000100000000D00000000
:100BD800000000000000000000000000000000000D
:100BE800006002405860024003000000000000005E
:100BF80000000000160000000E00000000000000C9
:100C0800000000000000000000000000006002403A
:100C180070600240040000000000000000000000B6
:100C2800200000000F00000000000000000000008D
:100C380000000000000000000060024088600240E0
:100C48000500000000000000000000002600000071
:100C5800100000000000000000000000000000007C
:100C68000000000000600240A06002400600000092
:100C7800000000000000000030000000110000002B
:100C8800000000000000000000000000000000005C
:100C980000600240B8600240070000000000000049
:100CA80000000000360000002F00000000000000D7
:100CB8000000000000000000000000000064024086
:100CC8001064024000000000000000000000000066
:100CD80000000000380000000000000000000000D4
:100CE8000000000000000000006402402864024088
:100CF80001000000000000000000000006000000E5
:100D080039000000000000000000000000000000A2
:100D1800000000000064024040640240020000003D
:100D28000000000000000000100000003A00000071
:100D380000000000000000000000000000000000AB
:100D480000640240586402400300000000000000F4
:100D580000000000160000003B000000000000003A
:100D680000000000000000000000000000640240D5
:100D78007064024004000000000000000000000051
:100D8800200000003C0000000000000000000000FF
:100D98000000000000000000006402408864024077
:100DA8000500000000000000000000002600000010
:100DB80044000000000000000000000000000000E7
:100DC8000000000000640240A06402400600000029
:100DD8000000000000000000300000004500000096
:100DE80000000000000000000000000000000000FB
:100DF80000640240B86402400700000000000000E0
:100E0800000000003600000046000000000000005E
:100E180000000000000000000000000001000000C9
:100E2800030000000000000005000000858D000898
:100E3800A58D0008BD8D0008C18D000831990008F6
:100E4800C58D0008C98D0008E40B060849F504089B
:100E5800B5DA040885460508000000000000000017
:100E6800794805080949050800000000000000004D
:100E780000000000F5DA0408218800082D88000821
:100E8800759600084D960008398800089196000864
:100E9800AD9600081F0000001C0000001F000000A5
:100EA8001E0000001F0000001E0000001F000000C0
:100EB8001F0000001E0000001F0000001E000000B0
:100EC8001F0000000068214C06000000050000001B
:100ED800C70000000600000005000000B94B050827
:100EE800BD4B0508C14B0508CD4B0508D14B05087E
:100EF800C54B0508C94B0508FFFFFF00FFFFFFFFB3
:100F080001010000E5F0040825DA0408FDEF0408F3
:100F18000000000091DA04089DF40408C9F20408EE
:100F280015F30408000000000000000085DA04083A
:100F3800E1DE040805DF0408A94505088D45050814
:100F4800C5450508E1450508FD45050821F00408E3
:100F5800A9D90408F9ED040800000000F5D904082F
:100F68002DF10408CDF1040819F20408000000006E
:100F78000000000019DA040801FF0000B821060883
:100F8800EC21060820220608FFFFFFFF08000000EA
:100F9800199E0008FFFFFFFF00010101000000008B
:100FA8000000C84298BE06080000080205030300B6
:100FB8000000000090BE06080100080205040300B6
:100FC80000000000D8CD0608000008020503030051
:100FD80000000000E0CD0608010008020504030037
:100FE8000000000088D606080200FE010114030074
:100FF800000000007C8206080300140200030000C1
:1010080000000000E8CD060804001F0202000600E8
:1010180000000000F0CD060805001F0202010600CE
:1010280000000000010100007D00000064000000D5
:101038000000803F000000000000000000000000E9
:101048000000803F000000000000000000000000D9
:101058000000803F000000000000000000000000C9
:10106800FFFFFFFF0000803FFFFFFFFF803C36FED1
:1010780080BE0608D0D0060800000000E52E020851
:10108800A08601000400000080BE06086CD1060896
:101098000000000095760108E80300000400000045
:1010A80074D10608000000000000000089C302088F
:1010B8007D000000FF0000003883060800000000E3
:1010C8000000000071C602087D000000FF0000005B
:1010D8003CDB06080000000000000000E9240308CB
:1010E8007D000000FF000000F48A060800000000F0
:1010F80000000000917A0108E803000003000000E6
:10110800288506080000000000000000995D03081B
:101118001027000003000000E4CD060800000000CE
:1011280009690308299E01085F7600000500000090
:10113800F48C06080000000000000000E9760108B1
:1011480010270000020000007CD106080000000003
:1011580000000000A1660108E80300000500000087
:1011680088D106080000000000000000A13D020828
:10117800204E00000300000098D10608000000007F
:101188000000000071430208204E00000300000028
:10119800A8D106080000000000000000317701080F
:1011A800400D0300030000006CBF060800000000AB
:1011B80000000000E5FA0108102700000200000006
:1011C800FC8C06080000000000000000D953040849
:1011D8001027000003000000B8D106080000000036
:1011E80000000000557F01081027000003000000E0
:1011F80048CE06080000000000000000F5F70208CD
:101208001027000002000000C4D1060800000000FA
:1012180000000000ED8E0308102700000200000007
:10122800248206080000000000000000C1E1010857
:10123800A0860100010000004482060800000000AA
:101248000000000091E40108A086010001000000F0
:101258007C810608000000000000000011D8010889
:1012680010270000020000002C860608000000007D
:101278000000000011E70108A00F000002000000B4
:10128800CCD106080000000000000000793A0408EC
:101298001A410000020000003C8D06080000000012
:1012A8001D8104088DC50408854501000200000061
:1012B8003C8106080000000000000000F1860408D8
:1012C8001027000002000000DCD006080000000023
:1012D8000000000001FF030850C3000002000000E6
:1012E800D8D106080000000000000000BD9B0408DB
:1012F800400D030001000000E0D1060800000000D6
:1013080000000000BD48040850C3000003000000AE
:10131800ECD106080000000000000000E13C0208D3
:1013280040420F0001000000F8D10608000000004C
:10133800000000009DF0010850C3000001000000FB
:1013480004D20608000000000000000039AD0408BF
:10135800102700000200000014D206080000000058
:101368000000000025890408102700000200000082
:101378000DFA010800000000000000000000000055
:101388000000803F00000000000000000000000096
:10139800FFFFFFFF59F101080000000000000000F6
:1013A80000000000000000006CDD002008000000C4
:1013B800000000005CDD0020080000006DF101085D
:1013C800000000000000000000000000FDFFFFFF1B
:1013D8000000000001000000FFFFFF7F0000008008
:1013E8007EFF7EFFE2FFE2FF0000803FFFFFFFFF7E
:1013F8000000FA430000FA430000FA44000000002D
:1014080000000000000000000000000000000000D4
:1014180000000000000000000000000000000000C4
:10142800000000000000803F0000000000000000F5
:1014380000000000000000000000000000000000A4
:101448000000000000000000000000000400000090
:1014580001F11F3F6D0F04080000000000000000AC
:1014680058680608D40600000050434760FECD00C7
:101478000000803F000000000000000000000000A5
:101488006855060800000000000000000000000089
:1014980014550608010000005CF4002000C8010093
:1014A8005DF40020005001005EF40020005A0100A5
:1014B8005FF4002002000000F8160608ACD7060802
:1014C800B4D7060872F400200100C4090000000027
:1014D80070F400200100C409000000006EF4002030
:1014E8000100C409000000006CF400200100C409D8
:1014F8000000000068F400200100C409000000009A
:101508006AF400200100C4090000000066F400200D
:101518000100C4090000000064F400200100C409AF
:101528000000000074F4002000C8010075F40020D9
:1015380000C8010076F400200000FFFF0A00000048
:1015480078F400200100C800010000007AF40020AF
:1015580032003075320000007CF40020E2FF1400F5
:10156800050000007EF400207EFF14000500000046
:1015780080F4002005002C010500000082F4002002
:10158800055A050085F4002000FF010089F40020B9
:1015980002000000C40B00208DF4002004000000AD
:1015A800B055060884F4002000FF010088F40020EC
:1015B80002000000C40B00208CF40020040000008E
:1015C800B05506088EF40020FF7F010090F400203B
:1015D80000000000FFFFFFFF0100000094F400205E
:1015E80000000000FFFFFFFF0100000098F400204A
:1015F80000000000FFFFFFFF010000009CF4002036
:10160800EE02CA08010000009EF4002000C8010094
:10161800640000009FF4002001C80100640000007D
:10162800A0F400200200000028180608A2F40020F8
:101638000000803E05000000A4F4002080C1803E28
:1016480005000000A6F400200083007D05000000CE
:10165800A8F4002080C1803E05000000AAF4002004
:1016680000FF0100ACF400206400F4010100000058
:10167800AEF400206400F40101000000B0F4002082
:101688006400F40101000000B2F40020040000002E
:101698002C1B0608B3F4002002000000201B0608DB
:1016A800B4F400200D00000098160608B5F40020D8
:1016B80000640100B6F40020320010270A00000080
:1016C800B8F400200D00000098160608B9F40020B0
:1016D8000D00000098160608BAF400200200000069
:1016E800D0160608000000000000000000000000FE
:1016F800C4550608000000000000000000000000BB
:10170800FC550608BBF40020650000007C1806089C
:10171800BCF400200300000034560608BDF4002085
:1017280004000000401B0608BEF40020030000006F
:1017380044560608BFF4002003000000445606087B
:10174800C0F40020000A0100C2F400200000E803F1
:1017580001000000C4F400200000E80301000000BC
:10176800C6F40020000A0100C8F400200000E803C5
:1017780001000000CAF400200000E8030100000096
:10178800CCF40020C800E80301000000CEF40020DB
:101798001400FA0001000000D0F400200100E80362
:1017A80001000000D2F4002000070100D4F400205A
:1017B8000000F40101000000D6F400200000F4014C
:1017C80001000000D8F400200000F401010000002E
:1017D800DAF400200000F40101000000DCF400202D
:1017E8000000E80301000000DEF400200000E80328
:1017F80001000000EDF4002019640100ECF4002061
:101808000200000054170608FEF4002000640100DE
:10181800E1F4002000640100E0F40020006401000D
:10182800E8F40020006401000A000000E7F400204A
:10183800006401000A000000E6F4002000640100D2
:101848000A000000EBF4002000FF01000A0000007D
:10185800EAF4002000FF01000A000000E9F400207B
:1018680000FF01000A000000E5F4002001FF01006C
:101878000A000000E4F4002001FF01000A00000053
:10188800E3F4002001FF01000A00000000F5002039
:101898000000F4010100000002F500200000E80348
:1018A8000100000004F500200000E803010000002A
:1018B80006F500200000E8030100000008F50020FC
:1018C8000000E803010000000AF50020009601006E
:1018D8000CF50020E803D0070A0000000EF50020F0
:1018E8000064010010F50020E803D0070A0000009A
:1018F80012F50020006401000A00000013F5002022
:101908000096010014F5002000C8010015F500201C
:10191800006401001AF500200064010019F5002098
:101928000064010018F50020006401001BF5002088
:10193800FF0801001CF500200164010031E80308DC
:1019480085E8030800000000545606081DF500202D
:10195800013201001EF500200100000028170608CA
:101968001FF50020040000003017060820F50020AD
:101978000096010021F500200064010022F50020F6
:1019880000FA01006400000023F500200AFA0100B3
:1019980024F500200AC8010025F500200064010094
:1019A80026F500200064010027F500200A5A0100EE
:1019B80028F5002000C8010029F5002000C8010012
:1019C8002AF50020003201002BF500200014010048
:1019D8002CF50020005F01002DF500200400000018
:1019E8005C1606082EF50020006401000A000000BD
:1019F8002FF500200AC805000A00000030F5002075
:101A080001000000301C060831F500200AC8050056
:101A18000A00000032F5002001000000301C060812
:101A280033F5002000C805000A00000034F5002046
:101A380000C805000A00000035F5002000C80500B0
:101A48000A00000036F5002000C805000A00000062
:101A580037F5002000C805000A00000038F500200E
:101A680000C805000A00000039F5002000C805007C
:101A78000A0000003AF5002000C805000A0000002E
:101A88003BF50020020000002016060840F5002063
:101A98000000D007010000004CF5002000C801003C
:101AA8004BF5002000C801004AF5002000C80100DD
:101AB8003EF500200000D0070100000049F5002095
:101AC80000C8010048F5002000C8010047F50020C3
:101AD80000C801003CF500200000D007010000000C
:101AE80046F5002000C8010045F5002000C80100A7
:101AF80044F5002000C801008CE30608000000003F
:101B0800000048F6002098E30608070800000000D7
:101B1800F8110020A0E30608070800000000F011F3
:101B28000020A8E30608070800000000E8110020CC
:101B3800B0E30608080800000000DC110020B8E344
:101B48000608070800000000D4110020C0E30608BA
:101B5800070800000000CC110020C8E306080708A9
:101B680000000000C4110020D0E3060808080000A7
:101B78000000B8110020D8E3060807100000000094
:101B8800B0110020E0E30608071000000000A811CB
:101B98000020E8E30608071000000000A01100205C
:101BA800F0E30608081000000000941100207CD71C
:101BB800060801000000000000000000000000000E
:101BC80010000000000000000000000011EC0308F5
:101BD80021EC030889100408C456060855F60020AD
:101BE8000064010056F60020005A010057F6002054
:101BF80000C801000000000000000000650B040898
:101C08006057060858F60020030000001016060862
:101C180059F60020000301005AF6002000030100D5
:101C2800CDEC030841ED030800000000A8570608A2
:101C3800B5ED0308F9ED0308000000005058060848
:101C4800B5EC0308AD10040800000000D0580608E1
:101C58005BF600200103010005F1030839F10308D0
:101C680000000000985C0608B9E60308EDE60308E2
:101C780000000000185D06088DEE03082DEF03082C
:101C8800000000007C5D0608A1EB0308C5310408CC
:101C980000000000345E06080109040875E6030820
:101CA80000000000DC5E06080DEB030800000000E1
:101CB80000000000845F060869E90308F9E90308E1
:101CC80000000000E85F0608D9E8030821E90308D6
:101CD80000000000A0600608CD6B0408FDE70308BB
:101CE80000000000206106086CF6002003000000D8
:101CF8005CF600207DEA0308CDEA03080000000036
:101D080010620608156C0408D10D040800000000D4
:101D18008062060841E70308810C040800000000FF
:101D2800786406086D6B0408410C04080000000084
:101D38000012002080F600200300000070F600204A
:101D48003DEC030879EC03080000000084650608F0
:101D5800D1FE03080000000000000000E865060846
:101D680045EE0308696A0408000000008466060856
:101D780000000000000000000000000020670608C6
:101D8800D76A04080D0C040800000000A0670608C4
:101D980000FF0000000000000000000065F00308DC
:101DA8000000000000000000F069060801000000C3
:101DB800FFFFFFFFFDFFFFFFE00100000000010043
:101DC800000000000000000000000000A86F0608E6
:101DD800AD36040800000000000000000C6F060883
:101DE8006DDF04080000000000000000806E060897
:101DF800C50704080000000000000000386E06084F
:101E0800FA000000010000000100000000000000CE
:101E180000000000850704087FFE002001FF2D2038
:101E28002D2D202D2D2D2D202D2D2D0000000000D5
:101E3800000000000000000000000000000101FF99
:101E4800FFFFFFFF01010000B2F6002088136F17A3
:101E580001000000B4F6002088136F17000000008E
:101E6800B6F6002088136F1701000000B8F60020AE
:101E780088136F17000000001DF003080000000021
:101E880000000000A06B0608B7FE0020010000005B
:101E9800F46B0608BBF6002001000000006C060881
:101EA80060F7002002000000086C060841F00308F3
:101EB8000000000000000000146C0608000000008C
:101EC8000000000000000000686C06080000000028
:101ED8000000000000000000D86C0608AFF60020E3
:101EE80002000000206D060800030120E0150C1711
:101EF80000000000C0120000A6040120000000003D
:101F080000000000A4040120000000000000000000
:101F1800A20401200000000000000000A00401202D
:101F280000000000000000009E04012000000000E6
:101F3800000000009C0401200000000000000000D8
:101F4800FC1500200000000000000000BAF6002088
:101F580003000000106D06080000000000000000EB
:101F6800000000002C6D0608AA040120E0150C17DB
:101F780000000000AC04012002000000206D0608EB
:101F88002D202D2D202D2D2D2D202D2D2D2D0000FA
:101F98000000000000000000000000000000000039
:101FA800000000000000000000000000646D06084A
:101FB800AE0401209CFF2C0100000000DA02012081
:101FC800E0150C17000000003D020120020000008F
:101FD800206D06082D202D2D202D2D2D2D202D2D69
:101FE8002D2D00000000000000000000000000008F
:101FF80000000000000000000000000000000000D9
:102008009C6D0608AA55070100001401FCFFFFFF9C
:102018000101FDAA55050100000801AA55090200A1
:102028000000AA5503009F0001000000AA550B01FB
:102038000000AA550501000001010000FF00000092
:1020480009024300020100C0320904000001020233
:1020580001000524001001052401000104240202E6
:102068000524060001070582030800FF0904010092
:10207800020A00000007050102400000070581026E
:102088004000000009026400030100C03209040096
:102098000001030000000921110100012236000798
:1020A80005830309000A080B010202020100090462
:1020B80001000102020100052400100105240100AD
:1020C800020424020205240601020705820308000F
:1020D800FF09040200020A0000000705010240008F
:1020E800000705810240000009022000010104C028
:1020F8003209040000020806500507058102400065
:102108000007050102400000010000001201000262
:10211800EF0201408304563200020102030100006D
:10212800120100020202004083044057000201022B
:10213800030100000403090400010000204E000010
:10214800000000000000000005010905A101A10030
:1021580005010930093109320933093509340936CD
:1021680009371581257F7508950881020509190128
:10217800290815002501950875018102C0C00000D5
:1021880009022200010100E03209040000010301F4
:102198000200092111010001223600070583030905
:1021A800000A01010100000000020D218610000054
:1021B800E80300000202200001020C208610000043
:1021C800D0070000020220000201091D1850060075
:1021D800D007000002040C000301071B1860070069
:1021E800A00F000003040E00040105181870070072
:1021F8000A1A000004040C000501021518800700E3
:10220800204E000005020C00000D98FF8501C4094E
:10221800C40900008813010C98FF8501C409C4098A
:1022280000008813020997FF8106C409C409030046
:102238008813030794FFE40CB80BC409060088133D
:10224800040590FFEF16AC0DC4090A0088130502B7
:102258008DFF2E2AA00FC40900008813A4000000D7
:102268000000000000000000A81B0020AC1B01209B
:10227800040000000100000049E304080000000019
:102288000000000000000000000000000000000046
:1022980097000000981900200000000003000000CB
:1022A80001000000B1E30408000000000000000085
:1022B800000000000000000000000000A41B002037
:1022C800A81B01200400000001000000D5E3040859
:1022D80000000000000000000000000000000000F6
:1022E80000000000A01B0020000000000400000007
:1022F8000100000069F6040800000000000000006A
:102308000000000000000000000000001B000000AA
:10231800141A002000000000030000000000000064
:10232800000000000000000000000000080000009D
:1023380001000000F9E304080000000000000000AC
:102348000000000000000000000000009C1B0020AE
:10235800A41B01200400000001000000FDFA04088D
:102368000000000000000000000000000000000065
:1023780000000000860000007C1A00200000000019
:102388000400000001000000C9FA04080000000071
:102398000000000000000000000000000000000035
:1023A800981B00200000000004000000010000004D
:1023B80069F60408000000000000000000000000AA
:1023C8000000000000000000941B00200000000036
:1023D80002000000000000000000000000000000F3
:1023E80000000000080000000100000009E40408E3
:1023F80000000000000000000000000000000000D5
:1024080000000000901B00200000000004000000F5
:102418000100000069F60408000000000000000048
:10242800000000000000000000000000FFFF0000A6
:10243800F40100000000000000000000000000009F
:1024480001000000D1D604080000000000000000D0
:10245800000000000100000000000000C9EB0408B3
:1024680069EC040821E6040879D90408BDD80408F1
:102478005DD9040845D9040889D9040899D90408FC
:1024880000000000000000008300FFFF1A000000A9
:102498008200FFFF1D0000008200FFFF1700000000
:1024A80015000000B01B0020000000000000000024
:1024B80068000000D00000000000000000000000DC
:1024C8000000000000000000000000000000000004
:1024D80000000000000000000000000000000000F4
:1024E80000000000000000000000000000000000E4
:0424F80000000000E0
:10800000074BD0F8EC105B68D0F8F8205B1A9A4266
:10801000B8BFC0F8F830012380F824310020704741
:10802000001000E02C22C24B00FB02F22DE9F041CF
:1080300003EB020E9A585268918ACD0700F18780AF
:108040005FFA81FC1CF0020F4ED0BFF35F8F9EF8E9
:108050001C100129CCB200F0F3804100148BBFF357
:108060005F8F4FF02C0C0CFB003C9CF81C40022C4A
:1080700000F013814FF02C0C0CFB003C9CF81C40D2
:10808000032C09D19CF81E4034B10C181C4494F800
:108090008450002D40F06981B2F804C01FFA8CFCB6
:1080A0004CF4806CA2F804C001EB000C9C449CF9D9
:1080B00086E04FF02C0C0CFB003C9CF81CC00CF133
:1080C000010CF4450ED101441944002481F8844088
:1080D00091F88510002940F0D9802C2202FB003352
:1080E00000225A76BDE8F0811CF0040F66D18CB2F4
:1080F00000EB40015E181CF0400C96F986804FEAB8
:10810000400100F0DF80158ADEF82470EDB207F838
:1081100008505FFA88FC0CF1010464B29EF81C70F0
:1081200086F88640E51CAF42A64600F049812C2522
:1081300005FB00352D7FAC42BBD10C180CF1020CB5
:108140001C444FFA8CFC84F886C0E646B1E71188DF
:1081500021F400610904090C1180118889B241F4ED
:108160008061118000EB400C9C449EF81E4000256D
:1081700041008CF88650002C50D09CF88440002C94
:1081800048D001441944012481F884402C2101FB8A
:108190000031097F022904D1118889B241F40061BC
:1081A00011802C2101FB0031897E41F001011182F7
:1081B0002C2202FB00331B7FBDE8F08100EB400462
:1081C0001C449EF81E504FF0010C410084F885C0FD
:1081D000002D7BD094F88450002D7CD12C2404FBFE
:1081E0000034647F002C00F0C3801488A4B244F4EF
:1081F000007414800C181C4494F886E00EF1010EF3
:108200004FFA8EFE84F886E0B2F800C01CF4807F3E
:10821000FAD14EE79EF81B40FF2CB2D02C2404FB71
:10822000003494F81AC00CF0FE0CA2F810C0E27EE4
:10823000FF2ABDD001441944FF2281F88620B7E708
:108240009EF81E1000293FF408AF00EB40051D44C6
:10825000410095F88460002E3FF400AF168826F4A4
:1082600080663604360C1680BFF35F8F85F8854034
:10827000148B148895F986E0A4B244F40074148039
:108280009488A4B244F48064948012E7918821F425
:1082900040710904090C91801FE79CF81E40002CD6
:1082A0003FF4E8AE0C181C4494F88450002D3FF4C1
:1082B000E1AE94F986E0148824F480642404240C4C
:1082C00014804BE0240635D4C646F2E694F8844088
:1082D000002C83D089E79EF81C50DEF82460022D24
:1082E000158852D925F480652D042D0C1580158A2A
:1082F00094F986C0EDB206F80C501588DEF82470AB
:10830000ADB245F4007515805FFA8CFC168A0CF14D
:1083100001056DB2F6B27E550CF1020E4FFA8EFEDB
:1083200084F886E09488A4B244F4806494806BE777
:10833000001C0020B8F1FF3F49D0DEF8204014F8BF
:108340000850EDB215829EF81C5008F1010464B289
:10835000A54286F88640A6467FF4ABAE948824F406
:1083600080642404240C9480A3E694F986E0F5E765
:108370001488A4B244F4807414800C181C440125A1
:1083800094F986E084F884503EE7ADB245F4007578
:108390001580158A94F986C0EDB206F80C505FFA84
:1083A0008CFC168ADEF824700CF101056DB20CF11C
:1083B000030EF6B24FFA8EFE7E5584F886E023E770
:1083C000958825F480652D042D0C9580AFE69EF8E8
:1083D0001B1086F886C0C9B211829EF81E1021B902
:1083E0009EF81C1000297FF4E3AE918821F480618F
:1083F0000904090C9180DBE610B404698269E46821
:108400004168146000234024C2E902344469936344
:108410000C31C2E90433C2E90633C2E90833C2E9C8
:108420000A33C2E90C33516094B1C269E4689363C2
:108430004FF48030C2E90041C2E90233C2E904339B
:10844000C2E90633C2E90833C2E90A03C2E90C33C0
:108450005DF8044B704700BFD0E9001300221A609A
:10846000037D1F2B07D9203B202202FA03F343F0A0
:108470001803CB607047202202FA03F343F018037D
:108480008B6070471B4B016803F57D7C02E02C3349
:1084900063452CD01A688A42F9D170B593F804E08C
:1084A000427996450BD02C33634505D01A688A4231
:1084B000F4D02C336345F9D14FF0FF3070BD9E46A8
:1084C0008468DEF80C50A5424FF0000208D001325B
:1084D000032A0EF10C0EE6D0DEF80C50A542F6D1C0
:1084E000DEF81050C668B542F1D150B270BD4FF001
:1084F000FF307047B4FC0508002A4FEA014C30B544
:1085000003460ABFE6468E468C4600F1C0050024AD
:1085100019689A6841EA0C0142EA0E029A60C3E9BE
:1085200000140C33AB42F3D1D0F8C030C0F8C440D3
:1085300043EA0E03C0F8C030C0F8C84030BD00BFE9
:10854000C3691969B3F80CC00A6830B49C6822F09A
:10855000010224680A60A28992B222EA0C02A28176
:10856000027D00681F2A06D94568203A08249440F5
:108570002C4246D0FEE70568082494402C42F9D1ED
:10858000202404FA02F28260274A92F88D20002A01
:1085900035D01A7E012A39D0D3F8F4200132C3F83D
:1085A000F420EFF31181502282F3128858685C6C3A
:1085B000026822EA04029C6C2243C9B2026081F381
:1085C0001188D3E90C401A6999681D6C0968146018
:1085D0005061D3E90E40546090600024B3F8A800C5
:1085E000D5604C62C86210680124204310601C767C
:1085F00083F8F1408A899B8913439BB28B8130BCFD
:108600007047202404FA02F2C260BDE7002283F81A
:10861000F120D3F8F8000A68013022F00102C3F813
:10862000F8000A60EBE700BF001C00202DE9F041D4
:10863000204CD4F89050002D32DD002304F1940238
:1086400018461F46012604EB032C01339CF88511C4
:1086500001F0FF0E51B9AB4202F58072F3D118B1AF
:1086600094F89434542B1ED0BDE8F0819168B2F890
:108670000C807046D1F800E0BEF80C1089B221EAF7
:108680000801AEF80C10D2F810E0DEF8001021F06E
:108690000101CEF800108CF8857182F8F260DAE7FB
:1086A0000020BDE8F081B4F89C340133A4F89C3478
:1086B000BDE8F081001C002010B40D4CD4F89030BF
:1086C000002B12DD002004F1940C0146DCF8A030F0
:1086D00003F1C00259600C339342FBD1D4F89030BF
:1086E000013083420CF5807CF0DC5DF8044B704770
:1086F000001C0020704700BF024B03EB401393F8AF
:10870000C5047047001C00204368B0F8502010B426
:108710001A83EFF31182502383F312884168446C6B
:108720000B6823EA0403C46C2343D2B20B6082F3C8
:108730001188D0E907418268036912681C60596199
:10874000D0E909415C60C46A9960B0F86010DC60EF
:108750000023D1625DF8044B0376704710B4037DAB
:1087600002681F2B09D95468203B202101FA03F32A
:108770001C4215D15DF8044B70471468202101FAA2
:1087800003F31C42F6D00D494068002481F8A84547
:1087900001685DF8044B21F00101016093607047AE
:1087A00006494068002481F8A84501685DF8044B3B
:1087B00021F001010160D360704700BF001C002060
:1087C0000C2911D8DFE801F0231010101910101037
:1087D000111010100700838B23F400631B041B0C83
:1087E00043EA02239BB283837047838B23F0080301
:1087F0001B041B0C1A4382837047038B23F4006312
:108800001B041B0C43EA02239BB203837047038BB8
:1088100023F008031B041B0C1A430283704700BF9C
:10882000122301480B80704798010020042301485F
:108830000B807047AC0100201C48D0F8103AD0F8EB
:10884000182A10B59B184FF01A040C8001D1184853
:1088500010BD174AD0F8140A02F1100411464FF067
:10886000000E4FEA137CB3F1204F34BF0CF1300CF3
:108870000CF1370C81F802C081F803E002318C4220
:108880004FEA0313EDD102F108040021030FB0F108
:10889000204F34BF303337339374D1740232944253
:1088A0004FEA0010F2D1024810BD00BF0070FF1F58
:1088B000B0010020426A806A131A5842584170473A
:1088C00090F84F3830B53BB990F84D1890F84E38C5
:1088D0000124DAB2914200D830BDB0F8565804FAFB
:1088E00003F22A43A0F856280133F2E7037902463F
:1088F00013F0010005D0D369D068116A01385B1A02
:108900001840704710B50379DB07044601D40020F6
:1089100010BDFFF7EBFF0028F9D0236A6269D05C35
:10892000236AE2680133B3FBF2F102FB1133C0B2F8
:108930002362EDE703799B070AD5436A8269D15424
:10894000436A02690133B3FBF2F102FB1133436264
:1089500070477047017170470379024613F00200B7
:1089600007D0536A1069916A01385B1A0340DBB281
:10897000C01A704782B01D4B1D490022019201931D
:10898000019B04330193019B1A688B6803F00C036D
:10899000042B02D0082B05D0164A174BC3F8AC2580
:1089A00002B0704748684B68400203F03F0314D49C
:1089B0004A681049B1FBF3F3C2F3881203FB02F2D9
:1089C0000B4B5B68C3F3014301335B00B2FBF3F273
:1089D000094BC3F8AC2502B070474968B2FBF3F20B
:1089E000C1F3881303FB02F2EAE700BF50280040FE
:1089F000003802400024F400001C0020072809D899
:108A0000054B8C2202FB0033B3F8B005B0FA80F0BE
:108A10004009704700207047001C0020072806D836
:108A2000034B8C2202FB0033012283F8B2257047EE
:108A3000001C002010B584464FEA810E102312F46A
:108A4000004F14BF0E2407245200013BCCF8004015
:108A500092B2F444F3D100EB81128C01035142F83D
:108A60002130122010BD00BF10B584464FEA810EA0
:108A70000424130B03EB430318331201013CCCF81D
:108A8000003092B2F444F4D100EB01130A01845097
:108A900043F82140062010BD704700BF704700BF5B
:108AA000034B00EB400003EBC00393F8210A70472F
:108AB000001C0020064B93F8D02A824283BF00EBB3
:108AC000400003EBC003D3F8240A0020704700BF26
:108AD000001C0020072808D8044B03EB401393F830
:108AE000C42412B1012283F8AA247047001C00207C
:108AF000072808D8054B03EB4013B3F8A804B0FAD5
:108B000080F0400970470020704700BF001C002023
:108B1000054B93F8D02A824286BF03EB4013D3F86B
:108B2000B4040020704700BF001C00201D4B93F8C8
:108B3000D12AAAB3D3F8101A09B100200860012A7B
:108B40002ED0D3F8281A09B100200860022A27D0B5
:108B5000D3F8401A09B100200860032A20D0D3F8C6
:108B6000581A09B100200860042A19D0D3F8701AE5
:108B700009B100200860052A12D0D3F8881A09B17B
:108B800000200860062A0BD0D3F8A01A09B10020F3
:108B90000860072A04D0D3F8B83A0BB100221A6053
:108BA000704700BF001C00201D4B93F8D12AAAB3C8
:108BB000D3F8101A09B100200860012A2ED0D3F88A
:108BC000281A09B100200860022A27D0D3F8401AD9
:108BD00009B100200860032A20D0D3F8581A09B13F
:108BE00000200860042A19D0D3F8701A09B10020B7
:108BF0000860052A12D0D3F8881A09B1002008604D
:108C0000062A0BD0D3F8A01A09B100200860072A61
:108C100004D0D3F8B83A0BB100221A60704700BFF5
:108C2000001C002000EE100AB8EE400A704700BF9A
:108C3000BCEEC00A10EE103A98B27047012380F8DB
:108C400029300020704700BF08B50346426AC06B58
:108C5000996B02445A6201B18847002008BD00BFE9
:108C6000036B1B681B6A5B685B78024613F00100AC
:108C700008BF82F82900704782634162704700BFD5
:108C8000704700BF043070470D4B93F8D82AD3F8D3
:108C9000D41A0244D2B283F8D82A93F8D82A0144CD
:108CA0001206C3F8D41A05D593F8D82A82F08002A8
:108CB00083F8D82A034B012283F83220704700BF83
:108CC000001C0020980100202DE9F047154FD7F82F
:108CD000DC5AED0A20D00026B14607F53268741937
:108CE000D7F8E03A1048D3F828A0C7F8189B04EB4F
:108CF000D474641010234246E102D0470F280BDDE4
:108D00000A4B03F1100153F8042B013207D18B42B7
:108D1000F9D12546B542E2DCE802BDE8F087661CE1
:108D2000F8E700BF001C0020E026002020270020DC
:108D300038B5134CD4F8305BD4F8343BEB1A322BF3
:108D40000CDCD4F8483BEB1A002B00DC38BD0020CB
:108D5000323510F0E3FEC4F8485B38BD94F8383B78
:108D6000D4F83C2B03F001031AB19188126823B99F
:108D700011830023C4F8483B38BD5183F9E700BF95
:108D8000001C0020064AD2F83C3B3BB192F8381B4D
:108D90009A881B68C90754BF1A835A8300207047FA
:108DA000001C00204FF40070034B1060D3F8583BB8
:108DB0000B600020704700BF001C0020002070479F
:108DC00001207047012070470020704730B585B002
:108DD00068464BF017F81048104AD0F8FC10009B7A
:108DE0000F4D41F08071C0F8FC10002400F1C84024
:108DF000C2F8B05FA0F5650054601168094CA0F698
:108E00007D60A0FB030341F001019B0CC4F8883B8B
:108E1000116005B030BD00BF00ED00E0001000E0C3
:108E200055CEACC5001C0020164AD0F8E830526878
:108E3000D0F8E01010B5044673B1501A83420BDC31
:108E400094F8D830C4F8E020012B10D0D4F8DC30EE
:108E50000133C4F8DC3010BDD4F8EC30C4F8E020A5
:108E60000B44C4F8E43094F8D830012BEED104F16F
:108E7000F001201D47F060F9D4F8DC300133C4F86C
:108E8000DC3010BD001000E0F0B5224C224A234B2C
:108E900095B0054604F13C00CDE90002049304F1CD
:108EA00040000023CDE90503CDE90E331C4A0992A9
:108EB0000B9304F134021093139311932B6B95F8D9
:108EC00028700A921868012302228DF80C3007934B
:108ED0008DF820308DF834308DF848303B1D0292EB
:108EE0000E460C9351F080FA97B1330E84F835306A
:108EF0003634320C330A22706370A670286B6946D0
:108F000047F01AF92B6B186851F06EFA15B0F0BDE6
:108F10003534EEE7980100208C270020618C000892
:108F20003D8C000810B5044694B0502206496846AE
:108F300056F02CFC206B694647F0FEF8236B18684E
:108F400051F052FA14B010BDA80006082DE9F04106
:108F50000446006B00681E460F46904651F044FAE6
:108F600094F82830606A002B3ED0284D030E85F817
:108F70004530052205F146039870EA67020C000AA5
:108F800058701A703B68C5F888300020D8F8003057
:108F9000C5F89030012EE363C5F8A00029D0022E59
:108FA00020D1D8F80420C5F89800796885F8940095
:108FB000C5F89C1013441649C5F8A4200120E363AA
:108FC00085F8A800C5F8AC10124B94F82920206B46
:108FD000A3F11401002A08BF194647F0ADF8A36BAE
:108FE0007BB1E06BBDE8F0810B4B0422A3F145059A
:108FF000C2E7074B85F89460C5E92630C5F8A400A0
:10900000E2E7236B186851F0EFF9EAE798010020D6
:10901000498C0008F8010020DD01002000B583B074
:1090200041620192049A0093826301236A4601A976
:10903000FFF78CFF03B05DF804FB00BFF0B5836958
:1090400093F8E420012A8BB0054635D0023A012A74
:109050002FD893F85421D3F89C10244C62F07F034E
:109060000B708669D6F8A0305F1C0FCCEC46ACE8DC
:109070000F00D6F89C30CDE900370FCCACE80F00DC
:1090800094E803008CE80300694606F1100047F0FD
:1090900053F8A9690A69136A002BFCD1D1F8A030F2
:1090A0005A8852BAEA819A8852BA2A82DB885BBA15
:1090B0006B8201200BB0F0BD93F8542193F8570157
:1090C000D3F8A010131A5B100133DBB201EB43029B
:1090D00031F813305BBAEB8153885BBA2B829388EB
:1090E00001205BBA6B820BB0F0BD00BFF800060830
:1090F000F0B590F8E430D0F8A060012B8BB00446B6
:109100004BD034D9023B012B2ED890F85531D0F8F2
:109110009C20524D63F07F031370D0F8A0305F1C89
:109120000FCDEC46ACE80F00D4F89C30CDE9003709
:109130000FCDACE80F0095E803008CE8030069460A
:1091400004F1100046F0F8FF2269136A002BFCD1ED
:1091500073885BBAA4F8D030B3885BBAA4F8D23075
:10916000F3885BBAA4F8D43001200BB0F0BDD0F87E
:109170009C304FF0FF321A605A609A60DA60D0F883
:10918000E8300522B3F57A7FC0F8F82038D80323F9
:1091900080F8E43001200BB0F0BD90F8571190F842
:1091A000553190F85621D0ED366AD0ED377A5B1AFA
:1091B0005B100133DBB2521A36F8131006EB43038F
:1091C00049BAA0F8D010598849BAA0F8D2109B88A3
:1091D00052100132D2B25BBAA0F8D43036F8123055
:1091E000DBBA07EE103AB8EEC77AE7EE267AFDEE64
:1091F000E77A17EE903AA0F8D63001200BB0F0BD18
:1092000003691A7B2AB35B691BB390F8983003B3E8
:1092100090F85731D0F89C20C4F8A40063F07F0385
:10922000137090F8571190F85531D0F8A0200C48E1
:10923000C4F80C015B1A07330121C4F80431D4F8D7
:109240009C3084F808110A44C4E93F3284F8E410E1
:109250008AE7022384F8E43086E700BFF8000608B6
:109260000180000870B50B4C05460426013E00D174
:1092700070BD94F9000016F013FB031E08DBEA181A
:1092800061789171A178E954052BDCBFE378137301
:109290000434EBE72001060838B5264D95F8502C2C
:1092A00095F8513C9A4240D195F8520CF0B1224BBE
:1092B00095F8534CD5F8902B00EB400003EBC00021
:1092C000B4B140F20D3500E01A6899689C894C6091
:1092D0000C6844F001040C60A2F8485091891833DE
:1092E00089B241F4807183429181EDD138BD1A6811
:1092F000118821F0800109041833090C118033F81A
:10930000141CD162118889B241F08001118054622D
:10931000B2F80CC033F8041C41EA0C0189B2834254
:10932000918123F8044CE2D138BD52F0EDF80028C9
:10933000BAD138BD001C0020902700202DE9F04153
:10934000DFF8AC8008EB401797F8C4340BB9BDE8E0
:10935000F08104460D46460110F0B6F9B0BB234833
:10936000464400EB4410A6F8A8540FF0D3FF98F839
:109370008D30D6F8C024D6F8AC1493B1D2F8A03012
:1093800001248C4003F1C001420010F4004F90B260
:1093900002D15A6822435A600C339942F4D1BDE895
:1093A000F081D2F8A030012401F11002944003F1C1
:1093B000C001420010F4004F90B202D15A6822431B
:1093C0005A600C338B42F4D1BDE8F08198F8513CDF
:1093D00003EB430308EBC303234493F8615C002DC4
:1093E000BDD0012387F8AA34B9E700BFA820002028
:1093F000001C0020F8B5294F8C2505FB007595F859
:10940000BF3503B9F8BD04460E4610F05DF930BB18
:109410008C2505FB04752248A5F8B06504EB84048F
:10942000C4EBC40400EB84000FF074FF97F8531CE6
:10943000D7F8B43C024609BB0121D5F83806984755
:10944000D5F83416B5F8BC458A8AD5F830362243AB
:109450008A8258601A6842F001021A60F8BD97F8D3
:10946000513C03EB430307EBC303234493F8616CC4
:10947000002ECDD0012385F8B235C9E7D5F8B8154F
:10948000D5F834064979006901F0FC01084404214B
:109490009847D5F8343680009881F8BD001C00202C
:1094A000B0210020A6E700BF10B5044654F080FEAE
:1094B00081B22046BDE8104040E700BF10B5044629
:1094C00054F076FE81B22046BDE8104092E700BF1E
:1094D00038B50B4D00EB400005F5216303EBC003ED
:1094E00093ED027AD3ED037AE7EE007AC4002544C7
:1094F000B0EE670A54F05CFED5F8103A186038BD3B
:10950000001C0020F8B50C4B1D685A691540054039
:109510005D617DB1094F0126B5FA85F4C4F11F04E0
:1095200007EB840306FA04F4D3F8B80C03689847F1
:10953000A543F1D1F8BD00BF003C0140001C002054
:109540002DE9F843038AB0F80C801FFA88F818EA6E
:10955000030829D005460E464FF00047B8FA88F3B5
:1095600027FA03F2D24391B21B3B298208EA020890
:10957000042B16D8DFE803F04134271A0300B36A3E
:10958000002B47D003F1FF3900231FFA89F9B3629A
:10959000746A34B123682046494698476468002CB1
:1095A000F8D1B8F1000FD9D1BDE8F8837068002870
:1095B000F7D00368002BF4D0696B89B29847B8F1F3
:1095C000000FCBD1F0E7B0680028EAD00368002B89
:1095D000E7D0A96B89B29847B8F1000FBED1E3E795
:1095E000F0680028DDD00368002BDAD0E96B89B27F
:1095F0009847B8F1000FB1D1D6E730690028D0D034
:109600000368002BCDD0296C89B29847B8F1000FC0
:10961000A4D1C9E7EB6A1FFA83F9B9E70C2908D886
:10962000DFE801F0110707070E0707070B07070719
:109630000800704711464AF09BBE11464AF04EBEE4
:1096400011464AF0FFBD11464AF0B8BD0A4608B5BA
:10965000054920B905484AF073FF034808BD04488E
:109660004AF06EFF004808BDF8280020347A06084A
:109670005C7A060810B5044C04480A4621464AF0B4
:109680005FFF204610BD00BFF8280020847A06083E
:1096900010B5044C04480A4621464AF051FF2046C2
:1096A00010BD00BFF8280020987A060810B5044CB9
:1096B00004480A4621464AF043FF204610BD00BF39
:1096C000F8280020A47A0608F8B5A0F668042379E3
:1096D000DB0725D5657994F84C3805F001073D4640
:1096E000FBB1D4F848341A68D36A5B08536294F823
:1096F000503823B1B4F85A380133A4F85A38606CA2
:1097000085F001014EF074F8012384F84F380023EE
:1097100084F84D3884F84E38A4F8563884F84C381C
:10972000F8BD94F84F68012E04BF94F84D3884F8C2
:109730004E382046FFF7C4F84EB9012384F84F385D
:1097400087EA0301606CBDE8F8404EF051B8002391
:1097500084F84F383946F5E710B5C469BCB12068C4
:10976000036A1B7B33B952F0E9F92046BDE810408B
:1097700049F022BDA368002BF5D01A689B8813839B
:1097800052F0DCF92046BDE8104049F015BD10BD8F
:1097900038B5C46904B938BD2568284652F0CEF9F9
:1097A0002B6A1B7B23B92046BDE8384049F004BD35
:1097B000A368002BF7D01A689B8813832046BDE866
:1097C000384049F0F9BC00BF38B590F83430012B6F
:1097D000044608D090F8290008B9012038BD0023BC
:1097E00084F8293038BD006B03681A7B92B994F86D
:1097F0002930002BF1D00A4D0A49022305F6F85210
:1098000046F0CAFC95F8F93DD84300F0010003F09A
:109810000103E5E71B6A002BE9D0002038BD00BF3B
:10982000001C00205C02002010B504462046FFF713
:10983000CBFF0028FAD0012010BD00BF2DE9F8436E
:10984000DDF820800F4615460021202204461E46E2
:1098500055F0F4FFB8F1000F0CD0D8F80030E381D8
:109860001B0C2382D8F80430B8F80A20E3821B0CC2
:1098700062822383384652F063FDEB0619D4431EFF
:10988000B8B107EB000C01E0013B12D31CF801ED6D
:10989000BEF12E0FF8D1C01A421E032AA8BF032220
:1098A000082B03F10109A8BF08239046B9441A46C2
:1098B00006E008280246B946A8BF08224FF0000873
:1098C0004FF02033394623606360204655F05EFF39
:1098D00004F10800154B238142464946837055F038
:1098E00055FF611EE21D11F801CFACF16103192B88
:1098F0009CBFACF1200C81F800C09142F3D104F17F
:109900000A0011F8013FA3F16102192A9CBF203B14
:109910000B708142F5D118232373330CA382E572B7
:10992000099B6683E361BDE8F88300BF2020200027
:109930002DE9F04FDFF84CB4DBF8300B85B0CBF8F5
:10994000340B002B60D013440C46174601F5FE7A09
:1099500099461FE0002F64D0DBF8643BBB4200F067
:10996000C680DBF8603BBB4200F0F880DBF8683B68
:10997000DBF86C1BBB424BD8B94200F27081791AFC
:1099800020464DF063FD01374F4504F500740AF59C
:10999000007A39D0DBF8703BBB42DBD8DBF8805B68
:1099A000FB1A296BDA0802328A4203F0070602D357
:1099B000AB6B9A420BD92946104602924DF016FD28
:1099C000029A0546002800F06A81CBF8800B2B79BB
:1099D000002B40F01E81D5F82880B8F1000F00F070
:1099E00057812B6BD21AEB6806EBC20203EB4222C3
:1099F00020462B464FF400710137C0474F4504F510
:109A000000740AF5007AC5D1002005B0BDE8F08FDA
:109A1000B942B4D94FF400720021204655F00EFF30
:109A2000B1E74FF400723946204655F007FF802316
:109A300084F8BE310C2384F8C231DBF8601BC54AC0
:109A4000DBF8583BC4F8C6119142C4F8CA3100F3A0
:109A50000B81C14AC14D82FB010285FB01050A440D
:109A6000C817C0EB6212C0EB2530BD4D84F8C101B0
:109A700085FB0265C2EB82168010891B013120F044
:109A80003F0015440843D117C1EBE5110A4484F89F
:109A9000BF21B04A84F8C001013B934200F3F0803B
:109AA000AD4AAE4882FB031280FB03101A44D9175B
:109AB000C1EB6212C1EB2031A94884F8C51180FBCB
:109AC0000250C2EB821589105B1B013321F03F016C
:109AD00010441943D317C3EBE0131A4484F8C4119C
:109AE00084F8C3214AF65523A4F8FE314BE74FF022
:109AF000FF3384F8EC3184F8ED3184F8EE3184F8EA
:109B0000EF315223237063706123A37084F8E7312F
:109B10004123E37084F8E6317223002584F8E431B0
:109B200084F8E531DBF8783BC4F8E8314FF4F072A3
:109B30002946201D55F082FE552384F8FE316FF032
:109B40005503C4F8F051C4F8F451C4F8F85184F83E
:109B5000FC5184F8FD5184F8FF3114E74FF4007292
:109B60000021204655F06AFE7E4B03CB45F6EB0301
:109B700023809023C4F80710A37002220821F82341
:109B8000C4F80300617322746375DBF8583B2273D9
:109B9000A27384F82C20DBF8602B9B1A2362DBF87D
:109BA000682BDBF86C3B9B1A63620023E372E37360
:109BB0006377A377E37784F82D3084F82E3084F828
:109BC0002F3084F83130684BA361684BC4F84230C1
:109BD0003E232377012384F83030654A802384F8BC
:109BE000403084F846104AF65521A4F8FE1103CA05
:109BF000604BC4F84700C4F84B1003CB1388A4F89B
:109C00004F309378C4F85200C4F8561084F851309D
:109C1000B9E64FF400720021204655F00FFE002EE9
:109C200044D12B6C04F12008002B7BD02B6B5249C4
:109C30001122CDE900662046FFF700FE2B6C1A6C5E
:109C4000002A7ED01B6B4D49CDE9006640461122AB
:109C5000FFF7F4FD04F140084FF4E0736DE0F91AEA
:109C600020464DF0F3FB8EE6FF2284F8C1214FF62B
:109C7000FF72A4F8BF21374A013B93427FF710AF30
:109C8000FF2384F8C5314FF6FF73A4F8C33129E7E9
:109C900041464FF40072204655F0D0FD73E6384A35
:109CA000231F43F8042F9A45FBD16CE6D5E9102514
:109CB0003301002A43D0023B002D3FF464AE013B48
:109CC000AD6CF9D1A0464FF40073002D3FF45BAEAC
:109CD000CDE9027A08EB0306A24608E00024CDE9AC
:109CE00000C4FFF7ABFDAD6CBDB1B04515D02C790C
:109CF00029682B6B404605F11C0C112208F1200845
:109D0000002CEBD16A792C6942F02102CDE900C424
:109D1000FFF794FDAD6C002DE7D15446029FDDF8AE
:109D20000CA030E6CDE900663346DBF85C1B082268
:109D30002046FFF783FD4FF4F0736D6CC5E7013BE0
:109D4000BAE7CDE900660D49334640461122FFF7D8
:109D500075FD7FE7FF03FB0083200882975545418F
:109D600081808080BC7A06083F00FF0029940E0D98
:109D7000C87A0608D47A0608B47A0608B87A0608BB
:109D8000DEADBEEF001C002010B4EFF311821023F3
:109D900083F312880A4BD3F8301B4FF0E0200131D7
:109DA000C3F8301B8169C3F8FC1D0024C3F8004EC2
:109DB0000369D3B283F311885DF8044B704700BF89
:109DC000001C002010B4EFF31181102383F31288DC
:109DD0004FF0E022C9B29469136913F4803F0D4B30
:109DE0001EBF0120C3F8000E9469D3F8300BD3F8DE
:109DF000002E81F31188D3F8881B02444FF47A7047
:109E000000FB01F31B1B5DF8044BB3FBF1F300FBFC
:109E100002307047001C0020704700BF2DE9F04160
:109E20001D4CDFF87C801D4F82B004F520750126A3
:109E300002E00834A54224D094F90630002BF8D172
:109E4000206800F13F4303F57E0308EB932393F86A
:109E500078345A09032A03F01F0306FA03F317D0D4
:109E6000042A11D0022A02D17A6C13437B640023A6
:109E7000A1881A46CDE90036083450F047F8A542CB
:109E8000DAD102B0BDE8F0813A6B13433B63EEE7F1
:109E90003A6C13433B64EAE7042A0020003802408E
:109EA000B4FC050830B50C4683B00546D8B103684C
:109EB00003F13F4303F57E039B0A0C4A134493F8D6
:109EC00078044DF0E9FFC4F34112C4F30013CDE967
:109ED0000032C4F38103A988286804F0030250F01B
:109EE00015F803B030BD4FF0FF33E6E7B4FC0508CA
:109EF00000B1D7E7704700BF70B50E4C94F8D06A38
:109F0000B6B104F59564002504E00135B54204F1CD
:109F100020040DD0237F002BF7D0E0680028F4D078
:109F2000217D0135FFF7BEFFB54204F12004F1D1D8
:109F3000012070BD001C002010B40E4B4FF0E02C2F
:109F4000D3F8302BDCF81800D3F8301B8A42F7D155
:109F5000D3F8FC1D8842F3D8D3F8884B4FF47A71BC
:109F600001FB04F31B1AB3FBF4F35DF8044B01FB94
:109F700002307047001C0020184B5B68C3F30803D5
:109F80001BB9EFF3118303B9D6E710B4EFF31181D6
:109F9000102383F312884FF0E022C9B29469136949
:109FA00013F4803F0E4B1EBF0120C3F8000E9469CE
:109FB000D3F8300BD3F8002E81F31188D3F8881B27
:109FC0004FF47A73024403FB01F0001B5DF8044B6D
:109FD000B0FBF1F003FB0200704700BF00ED00E0B2
:109FE000001C00202DE9F041027D04681F2A08D9D9
:109FF0006168A2F120052023AB400B4206D1BDE8E9
:10A00000F0812168202393400B42F8D03D4B3E4F16
:10A01000D0F81C805B683D4D47F8743C8C2303FBF3
:10A02000085395F853CCD3F8B805D3F83016066822
:10A03000BCF1000F4FD1B3F8BC050B6823F001034E
:10A040000B60B3899BB223EA0003B3810B68DB0783
:10A05000FCD41F2A4BD9203A2023934043F01D0300
:10A06000E36095F88D30002BC9D00B6857F86C2C45
:10A0700023F0D0030B608C2303FB0853012183F8EA
:10A080000416002A39D0338821499BB243F080035B
:10A0900033804FF0FF33F3628C2303FB08F8454411
:10A0A000304641444AF09EF9D5F83036D5F8B81517
:10A0B00016225A601A68096842F001021A608889FB
:10A0C000B5F8BC350F4A03439BB28B81536847F800
:10A0D000703CBDE8F0810069036823F00103036070
:10A0E000B38923F480731B041B0CB381AEE72023D8
:10A0F000934043F01D03A360B3E7FFF73DFF47F82C
:10A100006C0CC0E7001000E0F82C0020001C0020C0
:10A11000242200202DE9F04FDFF83CB387B09BF8F4
:10A120008D3004931BB9012007B0BDE8F08FC44EF9
:10A13000DBF8303B059306F538759BF8D03A019370
:10A140000BF5956A0027A846019B9F4200F0068107
:10A15000DAF8182092F8F2300093002B40F0F480E7
:10A16000DAF80450D2F8E830D2F8EC400293FFF766
:10A1700003FF029B9BF894E40390AA0002F10852AB
:10A1800002EB4312AF4B04F1806093F880533938EF
:10A19000BEF1540F02EB801002EB851301D1ABF836
:10A1A0009E54984240F23E811968002900F03381A4
:10A1B000196C002900F05281D3F88010002900F0BA
:10A1C0004F81D3F8C01003F580730029E9D19A1AA2
:10A1D00098424FEAA21240F22581A11A45294FF078
:10A1E000000428BF452103EB811120469946A4466F
:10A1F0000DE01C6C002C40F0C880D3F88040002C8F
:10A2000040F0EE80D3F8C04003F580732CB999423A
:10A2100006D91C68002CECD04033994200F2B9807A
:10A220006446112C40F20381DCF1150100F1FF803E
:10A23000854DD5F8C8309A42824B38BFC5F8C82042
:10A24000D3F88433039DEA1A002A1BDB03F5F423B9
:10A2500003F590739D4288BF2B467A4A88BF053329
:10A26000C2F88433784B774AD3F8C830052B86BFC1
:10A27000053BDBB2002382F88033734A4FF0FF3393
:10A28000C2F8C83031B100FA01F1C4F11404012060
:10A29000A04008436D4CC0F3C43304EB8303D3F8F0
:10A2A000801400F01F0304EB8303D3F8802442EAF8
:10A2B0000132C0F3441104EB8101C0F3842304EBA9
:10A2C0008303D1F88014D3F8803442EA011242EAC1
:10A2D000032282EA122383EA131303F00F01594B7E
:10A2E000D3F880320F2903F1010318D1B2F5803F72
:10A2F00015D2BEF1540F4FEA121204D1BBF89814D4
:10A300000131ABF898144F49B2F5606FC1F8803253
:10A3100000F0AC80A8F80C20049B00930FE0BEF185
:10A32000540F04D1BBF898240132ABF89824454A65
:10A33000C2F88032D2F87C320133C2F87C32009904
:10A34000059A30460FF086F90137082F06F15C06B2
:10A350000AF1200A08F114087FF4F6AEDBF8902029
:10A3600038490123002A81F87C337FF7DCAE384B73
:10A37000002103EB022283F8F21003F5807393426D
:10A38000F9D1012007B0BDE8F08F803399427FF604
:10A3900047AF4C461D1BAD112E4C013584FB059477
:10A3A000A4EBE574012CB8BF0124A0400125A4440E
:10A3B000013C05FA04F420431D462C6894B12C6C32
:10A3C000002C4FD0D5F88040002C4DD0D5F8C0409F
:10A3D00005F580753CB1A942EFD899462B4616E7A2
:10A3E000C0331AE74035A942F7D9EB1A194C9B1133
:10A3F000013384FB0394A4EBE373012BB8BF012367
:10A4000098409C440124013B04FA03F318432B4673
:10A4100099462B46FBE640339A1A98424FEAA2121D
:10A420003FF6DBAE1DB1074B013D83F88053BEF113
:10A43000540F89D1BBF89A340133ABF89A3483E7CF
:10A44000902C0020F82C002098010020B4FC050876
:10A45000941C002056555555001C00208033B6E64C
:10A46000C033B4E68035BEE7C035BCE79BF8513C4D
:10A4700003EB43030BEBC3033B4493F8613C0D2B0D
:10A480007FF448AF802388F81E3045E770B51E4C36
:10A4900094F8502C94F8513C9A4230D1D4F8905012
:10A4A000002D11DD194894F88D60002416B1037E4B
:10A4B000012B1ED002691368013443F00103A54249
:10A4C00000F580701360F1D1FFF756FD104BD3F803
:10A4D0008843002C0CDD03F5637303EBC404196897
:10A4E0009A8888890833024392B29C428A81F6D1C5
:10A4F00070BD002380F8F030FEF706F9DAE751F07E
:10A5000003F80028CAD170BD001C0020941C002054
:10A51000F82C0020274B5B68C3F308032DE9F041BA
:10A520000446002B42D1EFF31183002B3ED1FFF7FD
:10A5300003FD0746DFF87C801F4E102504E0FFF77F
:10A54000FBFCC31BA3422FD2D8F80430C3F308038B
:10A550001BB9EFF31183002BF1D0EFF3118385F3D7
:10A5600012884FF0E0220120D2F818C01169C90307
:10A5700044BFC6F8000ED2F818C0D6F830EBD6F8B3
:10A58000002EDBB283F31188D6F8880B4FF47A7172
:10A5900001FB00F37244A3EB0C03B3FBF0F301FBEC
:10A5A0000230C31BA342CFD3BDE8F081FFF70AFC02
:10A5B0000746BFE700ED00E0001C00202DE9F04158
:10A5C000284C294F461E6368C3F30803002B44D16F
:10A5D000EFF31183002B40D1FFF7AEFC804610252E
:10A5E00006E0FFF7A9FCA0EB0800B0F57A7F30D2B7
:10A5F0006368C3F308031BB9EFF31183002BF0D09A
:10A60000EFF3118285F312884FF0E0230120D3F895
:10A6100018C01969C90344BFC7F8000ED3F818C0A1
:10A62000D7F830EBD7F8003ED2B282F31188D7F8D2
:10A63000881B4FF47A7202FB01F07344A0EB0C000C
:10A64000B0FBF1F002FB0300A0EB0800B0F57A7F4D
:10A65000CED3013EB7D2BDE8F081FFF7B3FB804611
:10A66000BDE700BF00ED00E0001C00202DE9F04731
:10A670000130424C424D01F1FF385FFA80F910265B
:10A680004DF05AFF4FF4FA776368C3F30803002BC9
:10A690006FD1EFF31183002B6BD1FFF74DFC824696
:10A6A00006E0FFF749FCA0EB0A00B0F57A7F2ED256
:10A6B0006368C3F308031BB9EFF31183002BF0D0D9
:10A6C000EFF3118286F312884FF0E0234FF0010C74
:10A6D00099691869C00344BFC5F800CE9969D5F8D7
:10A6E00030EBD5F8003ED2B282F31188D5F888CB92
:10A6F0004FF47A7202FB0CF07344401AB0FBFCF08A
:10A7000002FB0300A0EB0A00B0F57A7FD0D3013F33
:10A71000BAD148464EF04AF94FF47A7A6368C3F3E7
:10A72000080313BBEFF31183FBB9FFF705FC0746E2
:10A7300005E0FFF701FCC01BB0F57A7F0DD263681E
:10A74000C3F308031BB9EFF31183002BF1D0FFF71C
:10A7500039FBC01BB0F57A7FF1D3BAF1010ADDD124
:10A76000B8F101088CD2BDE8F087FFF72BFB074654
:10A77000E5E7FFF727FB82469AE700BF00ED00E020
:10A78000001C002000F10109444C454E80B55FFAE1
:10A7900089F94FF00A0810274DF0CEFE4FF4FA7AEF
:10A7A0006368C3F30803002B73D1EFF31183002B0D
:10A7B0006FD1FFF7C1FB054605E0FFF7BDFB431B6B
:10A7C000B3F57A7F0DD26368C3F308031BB9EFF3C7
:10A7D0001183002BF1D0FFF7F5FA431BB3F57A7F15
:10A7E000F1D3BAF1010ADBD148464EF0DFF84FF45D
:10A7F0007A756368C3F30803002B46D1EFF3118326
:10A80000002B42D1FFF798FB824606E0FFF794FB4E
:10A81000A0EB0A03B3F57A7F30D26368C3F3080371
:10A820001BB9EFF31183002BF0D0EFF3118387F303
:10A8300012884FF0E022D2F818C01169C90304D57C
:10A840000121C6F8001ED2F818C0D6F830EBD6F8B1
:10A85000002EDBB283F31188D6F8880B4FF47A719F
:10A8600001FB00F37244A3EB0C03B3FBF0F301FB19
:10A870000230A0EB0A03B3F57A7FCED3013DB8D105
:10A88000B8F1010888D14DF04FFEFFF79BFA8246E0
:10A89000C3E7FFF797FA054695E700BF00ED00E034
:10A8A000001C0020F8B5C0F30D0406460F46ECB1BD
:10A8B0003D6849F0B7FB092815D1434C236923F4BF
:10A8C00040732361236943F400732361236943F0D8
:10A8D00001032361356049F0A5FB2369092823F0B2
:10A8E000010323616DD06FF0020033E0374B384A2B
:10A8F000934229D302F58042934224D302F5804249
:10A90000934228D3334A934227D902F580329342A7
:10A9100025D902F50032934223D902F50032934241
:10A9200021D902F5003293421FD902F50032934239
:10A930001DD902F5802293421BD9B3F1016F1AD3BE
:10A940000520FFF71FFF082449F06CFB092814D0ED
:10A950004FF0FF30F8BD1024F6E71824F4E7202468
:10A96000F2E72824F0E73024EEE73824ECE740242F
:10A97000EAE74824E8E75824E6E7134D2B6923F477
:10A9800040732B612B6943F400732B612B6923F017
:10A99000F8032B612B691C4344F002042C612B69E2
:10A9A00043F480332B6149F03DFB2B6923F0020314
:10A9B0002B612B69092823F0F8032B613FF478AF52
:10A9C000C6E70020C6E700BF003C02400040000888
:10A9D00000400008FFFF0008F8B5D0F880508768F5
:10A9E000044628463E6849F059FA002284F854206B
:10A9F0007F7930463946FDF7E3FE04F16002FEF749
:10AA00000DFE082239463046FDF7DAFE4023636228
:10AA100004F11801284649F0D7FA2B6843F01003D7
:10AA20002B60F8BD2DE9F04F704F97F88D3087B04F
:10AA30001BB9012007B0BDE8F08FD7F8303B039376
:10AA4000FFF79AFA034697F8D00A002800F0C18170
:10AA50006749009051F86C2CA3EB020A07F5B66524
:10AA6000A1F1680B01F51E780026D1460DE02846BD
:10AA7000FFF7B2FF009B01369E4205F18C050BF1FA
:10AA80005C0B08F1140800F0B780B9F1000F03DB8C
:10AA9000AB6D4B4500F383818C2303FB067393F866
:10AAA000043603F0FF0E002BE1D0AB68A9891A68C9
:10AAB000D5F880305C689389A4B2C4F116049BB2C7
:10AAC00023EA0103072C9381D1D9494AD5F888108C
:10AAD000D2F88032CDF810E00133C2F88032002085
:10AAE0000A68059182468446012301968E460295A6
:10AAF0001FE05EF82360BCF1140F8AF0010AA6EB98
:10AB000002022FDC12F1080148BF02F117010911FE
:10AB10004D1E072A4FF0010200FA01F002FA05F576
:10AB200040F3318101339C4240EA05008C443246B7
:10AB300018D3A342DDD3CCF11501CCF114050029C3
:10AB40004FF0010600FA01F106FA05F50ADDBAF147
:10AB5000000F00F0188101339C4245EA01004FF0DC
:10AB6000150CE6D2BCF1150FDDE90165DDF810E04A
:10AB700040F00B811F4AC0F3842302EB8303C0F330
:10AB8000441102EB8101D3F80035D1F800151B0206
:10AB900043EA011300F01F0102EB8101C0F3C4304E
:10ABA00002EB8002D1F80015D2F800250B4343EAEE
:10ABB000023383EA132282EA121202F00F020F2AF2
:10ABC00040F0E380C3F30F134FF6FF72934200F09F
:10ABD000DC80B3F5606F00F0E680A8F80C30039AD3
:10ABE000714658460EF036FD41E700BF001C0020BC
:10ABF000F82C0020B4FC0508794997F8C0450122DB
:10AC00001846002381F87C2341F86C3CD7F8B8152E
:10AC1000A5070B68497948BF04228A40198C92B273
:10AC200089B221EA02011984198C89B20A430128E8
:10AC30001A843FF4FEAED7F844261368517997F88A
:10AC40004C26940754BF012204228A40198C92B2E8
:10AC500089B221EA02011984198C89B20A430228B7
:10AC60001A843FF4E6AED7F8D0261368517997F8E6
:10AC7000D826920754BF012204228A40198C92B22E
:10AC800089B221EA02011984198C89B20A43032886
:10AC90001A843FF4CEAED7F85C271368517997F841
:10ACA0006427960754BF012204228A40198C92B26D
:10ACB00089B221EA02011984198C89B20A43042855
:10ACC0001A843FF4B6AED7F8E8271368517997F89D
:10ACD000F027950754BF012204228A40198C92B2B2
:10ACE00089B221EA02011984198C89B20A43052824
:10ACF0001A843FF49EAED7F874281368517997F8F8
:10AD00007C28940754BF012204228A40198C92B2F5
:10AD100089B221EA02011984198C89B20A430628F2
:10AD20001A843FF486AED7F800291368517997F852
:10AD30000829920754BF012204228A40198C92B23A
:10AD400089B221EA02011984198C89B20A430828C0
:10AD50001A847FF46EAED7F88C2997F8941913688B
:10AD6000507911F0020F18BF0422198C08BF01227C
:10AD7000824092B289B221EA02011984198C89B207
:10AD80000A431A8455E6DDE90165154AD2F87C329A
:10AD90000133C2F87C32B6B14FF0000E1FE700203D
:10ADA00007B0BDE8F08F97F8512C02EB420207EB99
:10ADB000C202324492F8612C0D2A7FF40EAF802338
:10ADC00088F81E300BE705990648582254F0DEFC3F
:10ADD000E2E7034B012283F87C2343F86C0C28E65E
:10ADE000F82C00201C30002043680B4A23F04073ED
:10ADF00023F4807343F48073436083681A4042F005
:10AE000002028260C36A0139C9B223F4700343EAC3
:10AE10000153C362704700BFFDF7FFC0704700BF1A
:10AE20000020FDF7FFB800BF0120FDF7FBB800BF11
:10AE30000220FDF7F7B800BF10B1036882881A83BB
:10AE4000704700BF30B1036882881B691A4214BF83
:10AE500001200020704700BF10B1036882885A8328
:10AE6000704700BFF8B50468D4E904235568117D24
:10AE70001768002B40D01F295E68D8612CD820228B
:10AE80008A4042F01802BA601A7D19681F2A2DD92B
:10AE9000203A2023934043F01803CB6000232B601B
:10AEA00033603368A16943F010033360284649F0EA
:10AEB0008BF8E169304649F087F82B68626843F007
:10AEC00001032B60336843F00103336093889BB226
:10AED00043F003039380F8BD203920228A4042F0DA
:10AEE0001802FA601A7D19681F2AD1D820239340CE
:10AEF00043F018038B60D1E71F29D06119D82023B4
:10AF00008B4043F01803BB6000232B602B68A169C2
:10AF100043F010032B60284649F056F82B6862680E
:10AF200043F001032B6093889BB243F002039380AC
:10AF3000F8BD203920238B4043F01803FB60E3E782
:10AF4000F0B5056890F888606B688488012285F800
:10AF500024201A8822F040021204120C1A802A8936
:10AF6000A24216D0B4F5807F2146A8BF4FF480716D
:10AF700002291A88B8BF022191FAA1F192B2B1FA5E
:10AF800081F122F03802013942EAC10292B21A80FC
:10AF90002C81017BAA7A8A420BD01A8822F0030204
:10AFA0001204120C1A801A8892B2002944D01A8016
:10AFB000A9721A882F7B92B242F040021A802B6A43
:10AFC0009A6892B34FF0000C1D4C1433E64653F8C8
:10AFD000101C964401EA040221B1B2F1805F27D02F
:10AFE0006A692AB353F8142C143302EA040112B12B
:10AFF000B1F1805F1CD053F80C2C0CF1010C002A2D
:10B00000E5D1AFB1A6B1BCF1010F0AD8BEF1070F6F
:10B0100007D80CEB8C0C4FEA8C022B6A13441B7B79
:10B0200033B9BDE8F04048F08FB80FB1002EF4D12D
:10B03000BDE8F04048F01CB942F00302B7E700BF9A
:10B040000000FFFFD3B2012B1DD8104B02EB4202D0
:10B0500010B54FEA820E0EF1080403F5EE7C02E013
:10B060001C3363450DD01A788242F9D15A788A424E
:10B07000F6D11A59002AF3D00EF1040E03EB0E009C
:10B0800010BD002010BD0020704700BF340206082C
:10B0900010B40C4C002304F56B7C01E0152B0CD094
:10B0A00003EB430201331CF802108142F6D1144431
:10B0B00094F9AE035DF8044B70474FF0FF305DF834
:10B0C000044B7047F82C002070B502EB4202104C84
:10B0D0004FEA820E23460EF10C05002204E00132F5
:10B0E000172A03F12C0310D01E688642F7D193F87B
:10B0F00004C08C45F3D15E59002EF0D02C210EF106
:10B10000080301FB0233E01870BD002070BD00BFD2
:10B11000B4FC0508F0B110B504460F4894F804E0FB
:10B12000002300F56B7C01E0152B11D003EB4302EB
:10B1300001331CF802107145F6D18318617993F937
:10B14000AE232068D3B2022B02D8BDE81040BBE783
:10B15000002010BD00207047F82C00200348D0F8D4
:10B16000DC300BB1CC301847704700BF980100208D
:10B170000348D0F808310BB1F8301847704700BFCA
:10B18000980100200348D0F8343113B100F59270D3
:10B1900018477047980100200348D0F8603113B178
:10B1A00000F5A87018477047980100200348D0F8B0
:10B1B0008C3113B100F5BE7018477047980100201C
:10B1C0000348D0F8B83113B100F5D4701847704770
:10B1D000980100200348D0F8E43113B100F5EA707B
:10B1E00018477047980100200348D0F8103213B177
:10B1F00000F5007018477047980100200348D0F808
:10B200003C3213B100F50B701847704798010020CD
:10B210000348D0F8683213B100F51670184770472C
:10B22000980100200348D0F8943213B100F5217042
:10B2300018477047980100200348D0F8C03213B176
:10B2400000F52C7018477047980100200348D0F88B
:10B25000EC3213B100F537701847704798010020A1
:10B260000348D0F8183313B100F5427018477047FF
:10B27000980100200348D0F8443313B100F54D7015
:10B2800018477047980100200348D0F8703313B175
:10B2900000F558701847704798010020094B013895
:10B2A0002C2202FB0033084AD3F8CC300748116B3C
:10B2B000834214BF4FF480034FF400130B43136316
:10B2C000704700BF98010020003802400060024033
:10B2D00070B53E4C3E4D01384FF02C0C0CFB004C31
:10B2E0009646DCF8CC603B4AAE4214BF4FF4800572
:10B2F0004FF40015166B35431563CCF8E83002F5B2
:10B300002052DCF8D030CCF8DC10103293423ED022
:10B3100002F5806293423AD0A2F57A72934248D005
:10B3200002F58062934244D0A2F57A72934242D0F1
:10B3300002F5806293423ED0A2F57A72934236D0F3
:10B3400002F58062934232D0A2F57A72934234D0F1
:10B3500002F58062934230D0A2F57A7293422ED0E9
:10B3600002F5806293422AD0A2F57A72934228D0E5
:10B3700002F58062934224D0A2F57A72934222D0E1
:10B38000154D02F58062934218BF002500E0134D71
:10B390002C2303FB0044CEF3011294F8E400C4F81C
:10B3A000F050CEF38711BDE870404CF0A7BA0C4DB9
:10B3B000EEE70C4DECE70C4DEAE70C4DE8E70C4DE1
:10B3C000E6E70C4DE4E7044DE2E700BF98010020FA
:10B3D00000600240003802400080002820800010F9
:10B3E00000800018008800100080201020800020BD
:10B3F000008800200080202048B182880449B2FAE9
:10B4000082F208684FF00043D34003430B6070475B
:10B41000003C014058B18088054AB0FA80F01168BC
:10B420004FF00043C34021EA0301116053617047AC
:10B43000003C01402DE9F84F9DF828B0002862D06B
:10B440008788DFF800919A46B7FA87F7384BC7F13B
:10B450001F0403EB84038046C3F8B81C09EB040304
:10B46000164693F85C57FFF7D5FF51464046FEF766
:10B4700019FDD8F8003004F0FC0202F1804202F518
:10B480009C3203F13F4303F57E0304F0030490680C
:10B49000A400C3F387234FF00F0CA3400CFA04F46D
:10B4A00020EA040090609068224C03439360224B92
:10B4B0004FF000421868FA4020EA0200186058680D
:10B4C00020EA02005860D4F8000C1043C4F8000CC5
:10B4D000986809EB8B0920EA02009860D86899F80F
:10B4E0006C1720EA02001029D8601AD001F18041BF
:10B4F00001F59E310B6813430B60104B2B4493F8FE
:10B50000EC23B24201DCBDE8F88F0D4A83F8EC630E
:10B51000505DC6F38711C6F30112BDE8F84F4CF039
:10B52000EDB9996811439960D9680A43DA60E4E794
:10B53000001C002000300140003C0140F82C00209D
:10B54000607B0608B4FC05080120FDF7DBBF00BFE7
:10B550000220FDF7D7BF00BF0420FDF7D3BF00BF17
:10B560000820FDF7CFBF00BF1020FDF7CBBF00BF05
:10B570004FF47870FDF7C6BF4FF47C40FDF7C2BFB3
:10B58000F0B5054683B0A0B307681D4B144607F11C
:10B590003F4202F57E0203EB92230E4693F87804B5
:10B5A0004CF07AFCA988B1FA81F3C3F11F03C3F30D
:10B5B000CC0207EB820203F00703156A4FF00F0C71
:10B5C0009B009C400CFA03F325EA03031362136A01
